{
  "contractName": "Calculator",
  "abi": [
    {
      "inputs": [
        {
          "internalType": "uint256",
          "name": "val",
          "type": "uint256"
        }
      ],
      "payable": false,
      "stateMutability": "nonpayable",
      "type": "constructor"
    },
    {
      "constant": true,
      "inputs": [],
      "name": "getVal",
      "outputs": [
        {
          "internalType": "uint256",
          "name": "",
          "type": "uint256"
        }
      ],
      "payable": false,
      "stateMutability": "view",
      "type": "function"
    },
    {
      "constant": false,
      "inputs": [
        {
          "internalType": "uint256",
          "name": "val",
          "type": "uint256"
        }
      ],
      "name": "addNumber",
      "outputs": [],
      "payable": false,
      "stateMutability": "nonpayable",
      "type": "function"
    },
    {
      "constant": false,
      "inputs": [
        {
          "internalType": "uint256",
          "name": "val",
          "type": "uint256"
        }
      ],
      "name": "subNumber",
      "outputs": [],
      "payable": false,
      "stateMutability": "nonpayable",
      "type": "function"
    }
  ],
  "bytecode": "0x608060405234801561001057600080fd5b506040516101703803806101708339818101604052602081101561003357600080fd5b810190808051906020019092919050505080600081905550506101158061005b6000396000f3fe6080604052348015600f57600080fd5b5060043610603c5760003560e01c80638b10c739146041578063e1cb0e5214606c578063fce68023146088575b600080fd5b606a60048036036020811015605557600080fd5b810190808035906020019092919050505060b3565b005b607260c5565b6040518082815260200191505060405180910390f35b60b160048036036020811015609c57600080fd5b810190808035906020019092919050505060ce565b005b80600080828254039250508190555050565b60008054905090565b8060008082825401925050819055505056fea265627a7a723158207936279cbe3f5b0c2d45db56e39cdcf8e827cede579f6023f7fa9e0274fa25ad64736f6c63430005100032",
  "source": "// SPDX-License-Identifier: MIT\n\npragma solidity ^0.5.16;\n\ncontract Calculator {\n    uint number;\n\n        constructor(uint val) public {\n            number = val;\n        }\n\n        function getVal() public view returns(uint) {\n            return number;\n        }\n\n        function addNumber(uint val) public {\n            number += val;\n        }\n\n        function subNumber(uint val) public {\n            number -= val;\n        }\n}",
  "sourcePath": "/Users/mardel/Desktop/tddtruffle/contracts/Calculator.sol",
  "compiler": {
    "name": "solc",
    "version": "0.5.16+commit.9c3226ce.Emscripten.clang"
  },
  "schemaVersion": "3.2.0",
  "updatedAt": "2020-06-02T01:15:14.387Z",
  "devdoc": {
    "methods": {}
  },
  "userdoc": {
    "methods": {}
  }
}